{"contracts/Marketx.sol":{"Marketx":{"abi":[{"inputs":[],"stateMutability":"nonpayable","type":"constructor"},{"anonymous":false,"inputs":[{"indexed":false,"internalType":"address","name":"buyer","type":"address"},{"indexed":false,"internalType":"uint256","name":"orderId","type":"uint256"},{"indexed":false,"internalType":"uint256","name":"itemId","type":"uint256"}],"name":"Buy","type":"event"},{"anonymous":false,"inputs":[{"indexed":false,"internalType":"string","name":"name","type":"string"},{"indexed":false,"internalType":"uint256","name":"cost","type":"uint256"},{"indexed":false,"internalType":"uint256","name":"quantity","type":"uint256"}],"name":"List","type":"event"},{"inputs":[{"internalType":"uint256","name":"_id","type":"uint256"}],"name":"buy","outputs":[],"stateMutability":"payable","type":"function"},{"inputs":[{"internalType":"uint256","name":"","type":"uint256"}],"name":"items","outputs":[{"internalType":"uint256","name":"id","type":"uint256"},{"internalType":"string","name":"name","type":"string"},{"internalType":"string","name":"category","type":"string"},{"internalType":"string","name":"image","type":"string"},{"internalType":"uint256","name":"cost","type":"uint256"},{"internalType":"uint256","name":"rating","type":"uint256"},{"internalType":"uint256","name":"stock","type":"uint256"}],"stateMutability":"view","type":"function"},{"inputs":[{"internalType":"uint256","name":"_id","type":"uint256"},{"internalType":"string","name":"_name","type":"string"},{"internalType":"string","name":"_category","type":"string"},{"internalType":"string","name":"_image","type":"string"},{"internalType":"uint256","name":"_cost","type":"uint256"},{"internalType":"uint256","name":"_rating","type":"uint256"},{"internalType":"uint256","name":"_stock","type":"uint256"}],"name":"list","outputs":[],"stateMutability":"nonpayable","type":"function"},{"inputs":[{"internalType":"address","name":"","type":"address"}],"name":"orderCount","outputs":[{"internalType":"uint256","name":"","type":"uint256"}],"stateMutability":"view","type":"function"},{"inputs":[{"internalType":"address","name":"","type":"address"},{"internalType":"uint256","name":"","type":"uint256"}],"name":"orders","outputs":[{"internalType":"uint256","name":"time","type":"uint256"},{"components":[{"internalType":"uint256","name":"id","type":"uint256"},{"internalType":"string","name":"name","type":"string"},{"internalType":"string","name":"category","type":"string"},{"internalType":"string","name":"image","type":"string"},{"internalType":"uint256","name":"cost","type":"uint256"},{"internalType":"uint256","name":"rating","type":"uint256"},{"internalType":"uint256","name":"stock","type":"uint256"}],"internalType":"struct Marketx.Item","name":"item","type":"tuple"}],"stateMutability":"view","type":"function"},{"inputs":[],"name":"owner","outputs":[{"internalType":"address","name":"","type":"address"}],"stateMutability":"view","type":"function"},{"inputs":[],"name":"withdraw","outputs":[],"stateMutability":"nonpayable","type":"function"}],"evm":{"bytecode":{"linkReferences":{},"object":"608060405234801561001057600080fd5b50336000806101000a81548173ffffffffffffffffffffffffffffffffffffffff021916908373ffffffffffffffffffffffffffffffffffffffff160217905550611542806100606000396000f3fe6080604052600436106100705760003560e01c80638da5cb5b1161004e5780638da5cb5b14610107578063bfb231d214610132578063d96a094a14610175578063eea8a7e81461019157610070565b80633ccfd60b14610075578063713d856b1461008c578063793b8c6d146100c9575b600080fd5b34801561008157600080fd5b5061008a6101ba565b005b34801561009857600080fd5b506100b360048036038101906100ae9190610daf565b6102ac565b6040516100c09190610df5565b60405180910390f35b3480156100d557600080fd5b506100f060048036038101906100eb9190610e3c565b6102c4565b6040516100fe929190610fce565b60405180910390f35b34801561011357600080fd5b5061011c6104dd565b604051610129919061100d565b60405180910390f35b34801561013e57600080fd5b5061015960048036038101906101549190611028565b610501565b60405161016c979695949392919061109f565b60405180910390f35b61018f600480360381019061018a9190611028565b6106db565b005b34801561019d57600080fd5b506101b860048036038101906101b39190611258565b610b30565b005b60008054906101000a900473ffffffffffffffffffffffffffffffffffffffff1673ffffffffffffffffffffffffffffffffffffffff163373ffffffffffffffffffffffffffffffffffffffff161461021257600080fd5b60008060009054906101000a900473ffffffffffffffffffffffffffffffffffffffff1673ffffffffffffffffffffffffffffffffffffffff16476040516102599061137f565b60006040518083038185875af1925050503d8060008114610296576040519150601f19603f3d011682016040523d82523d6000602084013e61029b565b606091505b50509050806102a957600080fd5b50565b60026020528060005260406000206000915090505481565b600360205281600052604060002060205280600052604060002060009150915050806000015490806001016040518060e001604052908160008201548152602001600182018054610314906113c3565b80601f0160208091040260200160405190810160405280929190818152602001828054610340906113c3565b801561038d5780601f106103625761010080835404028352916020019161038d565b820191906000526020600020905b81548152906001019060200180831161037057829003601f168201915b505050505081526020016002820180546103a6906113c3565b80601f01602080910402602001604051908101604052809291908181526020018280546103d2906113c3565b801561041f5780601f106103f45761010080835404028352916020019161041f565b820191906000526020600020905b81548152906001019060200180831161040257829003601f168201915b50505050508152602001600382018054610438906113c3565b80601f0160208091040260200160405190810160405280929190818152602001828054610464906113c3565b80156104b15780601f10610486576101008083540402835291602001916104b1565b820191906000526020600020905b81548152906001019060200180831161049457829003601f168201915b505050505081526020016004820154815260200160058201548152602001600682015481525050905082565b60008054906101000a900473ffffffffffffffffffffffffffffffffffffffff1681565b600160205280600052604060002060009150905080600001549080600101805461052a906113c3565b80601f0160208091040260200160405190810160405280929190818152602001828054610556906113c3565b80156105a35780601f10610578576101008083540402835291602001916105a3565b820191906000526020600020905b81548152906001019060200180831161058657829003601f168201915b5050505050908060020180546105b8906113c3565b80601f01602080910402602001604051908101604052809291908181526020018280546105e4906113c3565b80156106315780601f1061060657610100808354040283529160200191610631565b820191906000526020600020905b81548152906001019060200180831161061457829003601f168201915b505050505090806003018054610646906113c3565b80601f0160208091040260200160405190810160405280929190818152602001828054610672906113c3565b80156106bf5780601f10610694576101008083540402835291602001916106bf565b820191906000526020600020905b8154815290600101906020018083116106a257829003601f168201915b5050505050908060040154908060050154908060060154905087565b6000600160008381526020019081526020016000206040518060e001604052908160008201548152602001600182018054610715906113c3565b80601f0160208091040260200160405190810160405280929190818152602001828054610741906113c3565b801561078e5780601f106107635761010080835404028352916020019161078e565b820191906000526020600020905b81548152906001019060200180831161077157829003601f168201915b505050505081526020016002820180546107a7906113c3565b80601f01602080910402602001604051908101604052809291908181526020018280546107d3906113c3565b80156108205780601f106107f557610100808354040283529160200191610820565b820191906000526020600020905b81548152906001019060200180831161080357829003601f168201915b50505050508152602001600382018054610839906113c3565b80601f0160208091040260200160405190810160405280929190818152602001828054610865906113c3565b80156108b25780601f10610887576101008083540402835291602001916108b2565b820191906000526020600020905b81548152906001019060200180831161089557829003601f168201915b505050505081526020016004820154815260200160058201548152602001600682015481525050905080608001513410156108ec57600080fd5b60006040518060400160405280428152602001838152509050600260003373ffffffffffffffffffffffffffffffffffffffff1673ffffffffffffffffffffffffffffffffffffffff168152602001908152602001600020600081548092919061095590611424565b919050555080600360003373ffffffffffffffffffffffffffffffffffffffff1673ffffffffffffffffffffffffffffffffffffffff1681526020019081526020016000206000600260003373ffffffffffffffffffffffffffffffffffffffff1673ffffffffffffffffffffffffffffffffffffffff16815260200190815260200160002054815260200190815260200160002060008201518160000155602082015181600101600082015181600001556020820151816001019080519060200190610a23929190610c9a565b506040820151816002019080519060200190610a40929190610c9a565b506060820151816003019080519060200190610a5d929190610c9a565b506080820151816004015560a0820151816005015560c082015181600601555050905050600160008481526020019081526020016000206006016000815480929190610aa89061146d565b91905055507f1cbc5ab135991bd2b6a4b034a04aa2aa086dac1371cb9b16b8b5e2ed6b036bed33600260003373ffffffffffffffffffffffffffffffffffffffff1673ffffffffffffffffffffffffffffffffffffffff168152602001908152602001600020548460000151604051610b2393929190611497565b60405180910390a1505050565b60008054906101000a900473ffffffffffffffffffffffffffffffffffffffff1673ffffffffffffffffffffffffffffffffffffffff163373ffffffffffffffffffffffffffffffffffffffff1614610b8857600080fd5b60006040518060e0016040528089815260200188815260200187815260200186815260200185815260200184815260200183815250905080600160008a8152602001908152602001600020600082015181600001556020820151816001019080519060200190610bf9929190610c9a565b506040820151816002019080519060200190610c16929190610c9a565b506060820151816003019080519060200190610c33929190610c9a565b506080820151816004015560a0820151816005015560c082015181600601559050507ffdbe2a012c10ec01592653978eaa09b5ca60b143a0e617505b2ebcbd911ec5b8878584604051610c88939291906114ce565b60405180910390a15050505050505050565b828054610ca6906113c3565b90600052602060002090601f016020900481019282610cc85760008555610d0f565b82601f10610ce157805160ff1916838001178555610d0f565b82800160010185558215610d0f579182015b82811115610d0e578251825591602001919060010190610cf3565b5b509050610d1c9190610d20565b5090565b5b80821115610d39576000816000905550600101610d21565b5090565b6000604051905090565b600080fd5b600080fd5b600073ffffffffffffffffffffffffffffffffffffffff82169050919050565b6000610d7c82610d51565b9050919050565b610d8c81610d71565b8114610d9757600080fd5b50565b600081359050610da981610d83565b92915050565b600060208284031215610dc557610dc4610d47565b5b6000610dd384828501610d9a565b91505092915050565b6000819050919050565b610def81610ddc565b82525050565b6000602082019050610e0a6000830184610de6565b92915050565b610e1981610ddc565b8114610e2457600080fd5b50565b600081359050610e3681610e10565b92915050565b60008060408385031215610e5357610e52610d47565b5b6000610e6185828601610d9a565b9250506020610e7285828601610e27565b9150509250929050565b610e8581610ddc565b82525050565b600081519050919050565b600082825260208201905092915050565b60005b83811015610ec5578082015181840152602081019050610eaa565b83811115610ed4576000848401525b50505050565b6000601f19601f8301169050919050565b6000610ef682610e8b565b610f008185610e96565b9350610f10818560208601610ea7565b610f1981610eda565b840191505092915050565b600060e083016000830151610f3c6000860182610e7c565b5060208301518482036020860152610f548282610eeb565b91505060408301518482036040860152610f6e8282610eeb565b91505060608301518482036060860152610f888282610eeb565b9150506080830151610f9d6080860182610e7c565b5060a0830151610fb060a0860182610e7c565b5060c0830151610fc360c0860182610e7c565b508091505092915050565b6000604082019050610fe36000830185610de6565b8181036020830152610ff58184610f24565b90509392505050565b61100781610d71565b82525050565b60006020820190506110226000830184610ffe565b92915050565b60006020828403121561103e5761103d610d47565b5b600061104c84828501610e27565b91505092915050565b600082825260208201905092915050565b600061107182610e8b565b61107b8185611055565b935061108b818560208601610ea7565b61109481610eda565b840191505092915050565b600060e0820190506110b4600083018a610de6565b81810360208301526110c68189611066565b905081810360408301526110da8188611066565b905081810360608301526110ee8187611066565b90506110fd6080830186610de6565b61110a60a0830185610de6565b61111760c0830184610de6565b98975050505050505050565b600080fd5b600080fd5b7f4e487b7100000000000000000000000000000000000000000000000000000000600052604160045260246000fd5b61116582610eda565b810181811067ffffffffffffffff821117156111845761118361112d565b5b80604052505050565b6000611197610d3d565b90506111a3828261115c565b919050565b600067ffffffffffffffff8211156111c3576111c261112d565b5b6111cc82610eda565b9050602081019050919050565b82818337600083830152505050565b60006111fb6111f6846111a8565b61118d565b90508281526020810184848401111561121757611216611128565b5b6112228482856111d9565b509392505050565b600082601f83011261123f5761123e611123565b5b813561124f8482602086016111e8565b91505092915050565b600080600080600080600060e0888a03121561127757611276610d47565b5b60006112858a828b01610e27565b975050602088013567ffffffffffffffff8111156112a6576112a5610d4c565b5b6112b28a828b0161122a565b965050604088013567ffffffffffffffff8111156112d3576112d2610d4c565b5b6112df8a828b0161122a565b955050606088013567ffffffffffffffff811115611300576112ff610d4c565b5b61130c8a828b0161122a565b945050608061131d8a828b01610e27565b93505060a061132e8a828b01610e27565b92505060c061133f8a828b01610e27565b91505092959891949750929550565b600081905092915050565b50565b600061136960008361134e565b915061137482611359565b600082019050919050565b600061138a8261135c565b9150819050919050565b7f4e487b7100000000000000000000000000000000000000000000000000000000600052602260045260246000fd5b600060028204905060018216806113db57607f821691505b602082108114156113ef576113ee611394565b5b50919050565b7f4e487b7100000000000000000000000000000000000000000000000000000000600052601160045260246000fd5b600061142f82610ddc565b91507fffffffffffffffffffffffffffffffffffffffffffffffffffffffffffffffff821415611462576114616113f5565b5b600182019050919050565b600061147882610ddc565b9150600082141561148c5761148b6113f5565b5b600182039050919050565b60006060820190506114ac6000830186610ffe565b6114b96020830185610de6565b6114c66040830184610de6565b949350505050565b600060608201905081810360008301526114e88186611066565b90506114f76020830185610de6565b6115046040830184610de6565b94935050505056fea26469706673582212207df8da63ac2c9cbe614aefd4e7f7e7e39af651a6756527487e0edc2b147a1c3164736f6c63430008090033","opcodes":"PUSH1 0x80 PUSH1 0x40 MSTORE CALLVALUE DUP1 ISZERO PUSH2 0x10 JUMPI PUSH1 0x0 DUP1 REVERT JUMPDEST POP CALLER PUSH1 0x0 DUP1 PUSH2 0x100 EXP DUP2 SLOAD DUP2 PUSH20 0xFFFFFFFFFFFFFFFFFFFFFFFFFFFFFFFFFFFFFFFF MUL NOT AND SWAP1 DUP4 PUSH20 0xFFFFFFFFFFFFFFFFFFFFFFFFFFFFFFFFFFFFFFFF AND MUL OR SWAP1 SSTORE POP PUSH2 0x1542 DUP1 PUSH2 0x60 PUSH1 0x0 CODECOPY PUSH1 0x0 RETURN INVALID PUSH1 0x80 PUSH1 0x40 MSTORE PUSH1 0x4 CALLDATASIZE LT PUSH2 0x70 JUMPI PUSH1 0x0 CALLDATALOAD PUSH1 0xE0 SHR DUP1 PUSH4 0x8DA5CB5B GT PUSH2 0x4E JUMPI DUP1 PUSH4 0x8DA5CB5B EQ PUSH2 0x107 JUMPI DUP1 PUSH4 0xBFB231D2 EQ PUSH2 0x132 JUMPI DUP1 PUSH4 0xD96A094A EQ PUSH2 0x175 JUMPI DUP1 PUSH4 0xEEA8A7E8 EQ PUSH2 0x191 JUMPI PUSH2 0x70 JUMP JUMPDEST DUP1 PUSH4 0x3CCFD60B EQ PUSH2 0x75 JUMPI DUP1 PUSH4 0x713D856B EQ PUSH2 0x8C JUMPI DUP1 PUSH4 0x793B8C6D EQ PUSH2 0xC9 JUMPI JUMPDEST PUSH1 0x0 DUP1 REVERT JUMPDEST CALLVALUE DUP1 ISZERO PUSH2 0x81 JUMPI PUSH1 0x0 DUP1 REVERT JUMPDEST POP PUSH2 0x8A PUSH2 0x1BA JUMP JUMPDEST STOP JUMPDEST CALLVALUE DUP1 ISZERO PUSH2 0x98 JUMPI PUSH1 0x0 DUP1 REVERT JUMPDEST POP PUSH2 0xB3 PUSH1 0x4 DUP1 CALLDATASIZE SUB DUP2 ADD SWAP1 PUSH2 0xAE SWAP2 SWAP1 PUSH2 0xDAF JUMP JUMPDEST PUSH2 0x2AC JUMP JUMPDEST PUSH1 0x40 MLOAD PUSH2 0xC0 SWAP2 SWAP1 PUSH2 0xDF5 JUMP JUMPDEST PUSH1 0x40 MLOAD DUP1 SWAP2 SUB SWAP1 RETURN JUMPDEST CALLVALUE DUP1 ISZERO PUSH2 0xD5 JUMPI PUSH1 0x0 DUP1 REVERT JUMPDEST POP PUSH2 0xF0 PUSH1 0x4 DUP1 CALLDATASIZE SUB DUP2 ADD SWAP1 PUSH2 0xEB SWAP2 SWAP1 PUSH2 0xE3C JUMP JUMPDEST PUSH2 0x2C4 JUMP JUMPDEST PUSH1 0x40 MLOAD PUSH2 0xFE SWAP3 SWAP2 SWAP1 PUSH2 0xFCE JUMP JUMPDEST PUSH1 0x40 MLOAD DUP1 SWAP2 SUB SWAP1 RETURN JUMPDEST CALLVALUE DUP1 ISZERO PUSH2 0x113 JUMPI PUSH1 0x0 DUP1 REVERT JUMPDEST POP PUSH2 0x11C PUSH2 0x4DD JUMP JUMPDEST PUSH1 0x40 MLOAD PUSH2 0x129 SWAP2 SWAP1 PUSH2 0x100D JUMP JUMPDEST PUSH1 0x40 MLOAD DUP1 SWAP2 SUB SWAP1 RETURN JUMPDEST CALLVALUE DUP1 ISZERO PUSH2 0x13E JUMPI PUSH1 0x0 DUP1 REVERT JUMPDEST POP PUSH2 0x159 PUSH1 0x4 DUP1 CALLDATASIZE SUB DUP2 ADD SWAP1 PUSH2 0x154 SWAP2 SWAP1 PUSH2 0x1028 JUMP JUMPDEST PUSH2 0x501 JUMP JUMPDEST PUSH1 0x40 MLOAD PUSH2 0x16C SWAP8 SWAP7 SWAP6 SWAP5 SWAP4 SWAP3 SWAP2 SWAP1 PUSH2 0x109F JUMP JUMPDEST PUSH1 0x40 MLOAD DUP1 SWAP2 SUB SWAP1 RETURN JUMPDEST PUSH2 0x18F PUSH1 0x4 DUP1 CALLDATASIZE SUB DUP2 ADD SWAP1 PUSH2 0x18A SWAP2 SWAP1 PUSH2 0x1028 JUMP JUMPDEST PUSH2 0x6DB JUMP JUMPDEST STOP JUMPDEST CALLVALUE DUP1 ISZERO PUSH2 0x19D JUMPI PUSH1 0x0 DUP1 REVERT JUMPDEST POP PUSH2 0x1B8 PUSH1 0x4 DUP1 CALLDATASIZE SUB DUP2 ADD SWAP1 PUSH2 0x1B3 SWAP2 SWAP1 PUSH2 0x1258 JUMP JUMPDEST PUSH2 0xB30 JUMP JUMPDEST STOP JUMPDEST PUSH1 0x0 DUP1 SLOAD SWAP1 PUSH2 0x100 EXP SWAP1 DIV PUSH20 0xFFFFFFFFFFFFFFFFFFFFFFFFFFFFFFFFFFFFFFFF AND PUSH20 0xFFFFFFFFFFFFFFFFFFFFFFFFFFFFFFFFFFFFFFFF AND CALLER PUSH20 0xFFFFFFFFFFFFFFFFFFFFFFFFFFFFFFFFFFFFFFFF AND EQ PUSH2 0x212 JUMPI PUSH1 0x0 DUP1 REVERT JUMPDEST PUSH1 0x0 DUP1 PUSH1 0x0 SWAP1 SLOAD SWAP1 PUSH2 0x100 EXP SWAP1 DIV PUSH20 0xFFFFFFFFFFFFFFFFFFFFFFFFFFFFFFFFFFFFFFFF AND PUSH20 0xFFFFFFFFFFFFFFFFFFFFFFFFFFFFFFFFFFFFFFFF AND SELFBALANCE PUSH1 0x40 MLOAD PUSH2 0x259 SWAP1 PUSH2 0x137F JUMP JUMPDEST PUSH1 0x0 PUSH1 0x40 MLOAD DUP1 DUP4 SUB DUP2 DUP6 DUP8 GAS CALL SWAP3 POP POP POP RETURNDATASIZE DUP1 PUSH1 0x0 DUP2 EQ PUSH2 0x296 JUMPI PUSH1 0x40 MLOAD SWAP2 POP PUSH1 0x1F NOT PUSH1 0x3F RETURNDATASIZE ADD AND DUP3 ADD PUSH1 0x40 MSTORE RETURNDATASIZE DUP3 MSTORE RETURNDATASIZE PUSH1 0x0 PUSH1 0x20 DUP5 ADD RETURNDATACOPY PUSH2 0x29B JUMP JUMPDEST PUSH1 0x60 SWAP2 POP JUMPDEST POP POP SWAP1 POP DUP1 PUSH2 0x2A9 JUMPI PUSH1 0x0 DUP1 REVERT JUMPDEST POP JUMP JUMPDEST PUSH1 0x2 PUSH1 0x20 MSTORE DUP1 PUSH1 0x0 MSTORE PUSH1 0x40 PUSH1 0x0 KECCAK256 PUSH1 0x0 SWAP2 POP SWAP1 POP SLOAD DUP2 JUMP JUMPDEST PUSH1 0x3 PUSH1 0x20 MSTORE DUP2 PUSH1 0x0 MSTORE PUSH1 0x40 PUSH1 0x0 KECCAK256 PUSH1 0x20 MSTORE DUP1 PUSH1 0x0 MSTORE PUSH1 0x40 PUSH1 0x0 KECCAK256 PUSH1 0x0 SWAP2 POP SWAP2 POP POP DUP1 PUSH1 0x0 ADD SLOAD SWAP1 DUP1 PUSH1 0x1 ADD PUSH1 0x40 MLOAD DUP1 PUSH1 0xE0 ADD PUSH1 0x40 MSTORE SWAP1 DUP2 PUSH1 0x0 DUP3 ADD SLOAD DUP2 MSTORE PUSH1 0x20 ADD PUSH1 0x1 DUP3 ADD DUP1 SLOAD PUSH2 0x314 SWAP1 PUSH2 0x13C3 JUMP JUMPDEST DUP1 PUSH1 0x1F ADD PUSH1 0x20 DUP1 SWAP2 DIV MUL PUSH1 0x20 ADD PUSH1 0x40 MLOAD SWAP1 DUP2 ADD PUSH1 0x40 MSTORE DUP1 SWAP3 SWAP2 SWAP1 DUP2 DUP2 MSTORE PUSH1 0x20 ADD DUP3 DUP1 SLOAD PUSH2 0x340 SWAP1 PUSH2 0x13C3 JUMP JUMPDEST DUP1 ISZERO PUSH2 0x38D JUMPI DUP1 PUSH1 0x1F LT PUSH2 0x362 JUMPI PUSH2 0x100 DUP1 DUP4 SLOAD DIV MUL DUP4 MSTORE SWAP2 PUSH1 0x20 ADD SWAP2 PUSH2 0x38D JUMP JUMPDEST DUP3 ADD SWAP2 SWAP1 PUSH1 0x0 MSTORE PUSH1 0x20 PUSH1 0x0 KECCAK256 SWAP1 JUMPDEST DUP2 SLOAD DUP2 MSTORE SWAP1 PUSH1 0x1 ADD SWAP1 PUSH1 0x20 ADD DUP1 DUP4 GT PUSH2 0x370 JUMPI DUP3 SWAP1 SUB PUSH1 0x1F AND DUP3 ADD SWAP2 JUMPDEST POP POP POP POP POP DUP2 MSTORE PUSH1 0x20 ADD PUSH1 0x2 DUP3 ADD DUP1 SLOAD PUSH2 0x3A6 SWAP1 PUSH2 0x13C3 JUMP JUMPDEST DUP1 PUSH1 0x1F ADD PUSH1 0x20 DUP1 SWAP2 DIV MUL PUSH1 0x20 ADD PUSH1 0x40 MLOAD SWAP1 DUP2 ADD PUSH1 0x40 MSTORE DUP1 SWAP3 SWAP2 SWAP1 DUP2 DUP2 MSTORE PUSH1 0x20 ADD DUP3 DUP1 SLOAD PUSH2 0x3D2 SWAP1 PUSH2 0x13C3 JUMP JUMPDEST DUP1 ISZERO PUSH2 0x41F JUMPI DUP1 PUSH1 0x1F LT PUSH2 0x3F4 JUMPI PUSH2 0x100 DUP1 DUP4 SLOAD DIV MUL DUP4 MSTORE SWAP2 PUSH1 0x20 ADD SWAP2 PUSH2 0x41F JUMP JUMPDEST DUP3 ADD SWAP2 SWAP1 PUSH1 0x0 MSTORE PUSH1 0x20 PUSH1 0x0 KECCAK256 SWAP1 JUMPDEST DUP2 SLOAD DUP2 MSTORE SWAP1 PUSH1 0x1 ADD SWAP1 PUSH1 0x20 ADD DUP1 DUP4 GT PUSH2 0x402 JUMPI DUP3 SWAP1 SUB PUSH1 0x1F AND DUP3 ADD SWAP2 JUMPDEST POP POP POP POP POP DUP2 MSTORE PUSH1 0x20 ADD PUSH1 0x3 DUP3 ADD DUP1 SLOAD PUSH2 0x438 SWAP1 PUSH2 0x13C3 JUMP JUMPDEST DUP1 PUSH1 0x1F ADD PUSH1 0x20 DUP1 SWAP2 DIV MUL PUSH1 0x20 ADD PUSH1 0x40 MLOAD SWAP1 DUP2 ADD PUSH1 0x40 MSTORE DUP1 SWAP3 SWAP2 SWAP1 DUP2 DUP2 MSTORE PUSH1 0x20 ADD DUP3 DUP1 SLOAD PUSH2 0x464 SWAP1 PUSH2 0x13C3 JUMP JUMPDEST DUP1 ISZERO PUSH2 0x4B1 JUMPI DUP1 PUSH1 0x1F LT PUSH2 0x486 JUMPI PUSH2 0x100 DUP1 DUP4 SLOAD DIV MUL DUP4 MSTORE SWAP2 PUSH1 0x20 ADD SWAP2 PUSH2 0x4B1 JUMP JUMPDEST DUP3 ADD SWAP2 SWAP1 PUSH1 0x0 MSTORE PUSH1 0x20 PUSH1 0x0 KECCAK256 SWAP1 JUMPDEST DUP2 SLOAD DUP2 MSTORE SWAP1 PUSH1 0x1 ADD SWAP1 PUSH1 0x20 ADD DUP1 DUP4 GT PUSH2 0x494 JUMPI DUP3 SWAP1 SUB PUSH1 0x1F AND DUP3 ADD SWAP2 JUMPDEST POP POP POP POP POP DUP2 MSTORE PUSH1 0x20 ADD PUSH1 0x4 DUP3 ADD SLOAD DUP2 MSTORE PUSH1 0x20 ADD PUSH1 0x5 DUP3 ADD SLOAD DUP2 MSTORE PUSH1 0x20 ADD PUSH1 0x6 DUP3 ADD SLOAD DUP2 MSTORE POP POP SWAP1 POP DUP3 JUMP JUMPDEST PUSH1 0x0 DUP1 SLOAD SWAP1 PUSH2 0x100 EXP SWAP1 DIV PUSH20 0xFFFFFFFFFFFFFFFFFFFFFFFFFFFFFFFFFFFFFFFF AND DUP2 JUMP JUMPDEST PUSH1 0x1 PUSH1 0x20 MSTORE DUP1 PUSH1 0x0 MSTORE PUSH1 0x40 PUSH1 0x0 KECCAK256 PUSH1 0x0 SWAP2 POP SWAP1 POP DUP1 PUSH1 0x0 ADD SLOAD SWAP1 DUP1 PUSH1 0x1 ADD DUP1 SLOAD PUSH2 0x52A SWAP1 PUSH2 0x13C3 JUMP JUMPDEST DUP1 PUSH1 0x1F ADD PUSH1 0x20 DUP1 SWAP2 DIV MUL PUSH1 0x20 ADD PUSH1 0x40 MLOAD SWAP1 DUP2 ADD PUSH1 0x40 MSTORE DUP1 SWAP3 SWAP2 SWAP1 DUP2 DUP2 MSTORE PUSH1 0x20 ADD DUP3 DUP1 SLOAD PUSH2 0x556 SWAP1 PUSH2 0x13C3 JUMP JUMPDEST DUP1 ISZERO PUSH2 0x5A3 JUMPI DUP1 PUSH1 0x1F LT PUSH2 0x578 JUMPI PUSH2 0x100 DUP1 DUP4 SLOAD DIV MUL DUP4 MSTORE SWAP2 PUSH1 0x20 ADD SWAP2 PUSH2 0x5A3 JUMP JUMPDEST DUP3 ADD SWAP2 SWAP1 PUSH1 0x0 MSTORE PUSH1 0x20 PUSH1 0x0 KECCAK256 SWAP1 JUMPDEST DUP2 SLOAD DUP2 MSTORE SWAP1 PUSH1 0x1 ADD SWAP1 PUSH1 0x20 ADD DUP1 DUP4 GT PUSH2 0x586 JUMPI DUP3 SWAP1 SUB PUSH1 0x1F AND DUP3 ADD SWAP2 JUMPDEST POP POP POP POP POP SWAP1 DUP1 PUSH1 0x2 ADD DUP1 SLOAD PUSH2 0x5B8 SWAP1 PUSH2 0x13C3 JUMP JUMPDEST DUP1 PUSH1 0x1F ADD PUSH1 0x20 DUP1 SWAP2 DIV MUL PUSH1 0x20 ADD PUSH1 0x40 MLOAD SWAP1 DUP2 ADD PUSH1 0x40 MSTORE DUP1 SWAP3 SWAP2 SWAP1 DUP2 DUP2 MSTORE PUSH1 0x20 ADD DUP3 DUP1 SLOAD PUSH2 0x5E4 SWAP1 PUSH2 0x13C3 JUMP JUMPDEST DUP1 ISZERO PUSH2 0x631 JUMPI DUP1 PUSH1 0x1F LT PUSH2 0x606 JUMPI PUSH2 0x100 DUP1 DUP4 SLOAD DIV MUL DUP4 MSTORE SWAP2 PUSH1 0x20 ADD SWAP2 PUSH2 0x631 JUMP JUMPDEST DUP3 ADD SWAP2 SWAP1 PUSH1 0x0 MSTORE PUSH1 0x20 PUSH1 0x0 KECCAK256 SWAP1 JUMPDEST DUP2 SLOAD DUP2 MSTORE SWAP1 PUSH1 0x1 ADD SWAP1 PUSH1 0x20 ADD DUP1 DUP4 GT PUSH2 0x614 JUMPI DUP3 SWAP1 SUB PUSH1 0x1F AND DUP3 ADD SWAP2 JUMPDEST POP POP POP POP POP SWAP1 DUP1 PUSH1 0x3 ADD DUP1 SLOAD PUSH2 0x646 SWAP1 PUSH2 0x13C3 JUMP JUMPDEST DUP1 PUSH1 0x1F ADD PUSH1 0x20 DUP1 SWAP2 DIV MUL PUSH1 0x20 ADD PUSH1 0x40 MLOAD SWAP1 DUP2 ADD PUSH1 0x40 MSTORE DUP1 SWAP3 SWAP2 SWAP1 DUP2 DUP2 MSTORE PUSH1 0x20 ADD DUP3 DUP1 SLOAD PUSH2 0x672 SWAP1 PUSH2 0x13C3 JUMP JUMPDEST DUP1 ISZERO PUSH2 0x6BF JUMPI DUP1 PUSH1 0x1F LT PUSH2 0x694 JUMPI PUSH2 0x100 DUP1 DUP4 SLOAD DIV MUL DUP4 MSTORE SWAP2 PUSH1 0x20 ADD SWAP2 PUSH2 0x6BF JUMP JUMPDEST DUP3 ADD SWAP2 SWAP1 PUSH1 0x0 MSTORE PUSH1 0x20 PUSH1 0x0 KECCAK256 SWAP1 JUMPDEST DUP2 SLOAD DUP2 MSTORE SWAP1 PUSH1 0x1 ADD SWAP1 PUSH1 0x20 ADD DUP1 DUP4 GT PUSH2 0x6A2 JUMPI DUP3 SWAP1 SUB PUSH1 0x1F AND DUP3 ADD SWAP2 JUMPDEST POP POP POP POP POP SWAP1 DUP1 PUSH1 0x4 ADD SLOAD SWAP1 DUP1 PUSH1 0x5 ADD SLOAD SWAP1 DUP1 PUSH1 0x6 ADD SLOAD SWAP1 POP DUP8 JUMP JUMPDEST PUSH1 0x0 PUSH1 0x1 PUSH1 0x0 DUP4 DUP2 MSTORE PUSH1 0x20 ADD SWAP1 DUP2 MSTORE PUSH1 0x20 ADD PUSH1 0x0 KECCAK256 PUSH1 0x40 MLOAD DUP1 PUSH1 0xE0 ADD PUSH1 0x40 MSTORE SWAP1 DUP2 PUSH1 0x0 DUP3 ADD SLOAD DUP2 MSTORE PUSH1 0x20 ADD PUSH1 0x1 DUP3 ADD DUP1 SLOAD PUSH2 0x715 SWAP1 PUSH2 0x13C3 JUMP JUMPDEST DUP1 PUSH1 0x1F ADD PUSH1 0x20 DUP1 SWAP2 DIV MUL PUSH1 0x20 ADD PUSH1 0x40 MLOAD SWAP1 DUP2 ADD PUSH1 0x40 MSTORE DUP1 SWAP3 SWAP2 SWAP1 DUP2 DUP2 MSTORE PUSH1 0x20 ADD DUP3 DUP1 SLOAD PUSH2 0x741 SWAP1 PUSH2 0x13C3 JUMP JUMPDEST DUP1 ISZERO PUSH2 0x78E JUMPI DUP1 PUSH1 0x1F LT PUSH2 0x763 JUMPI PUSH2 0x100 DUP1 DUP4 SLOAD DIV MUL DUP4 MSTORE SWAP2 PUSH1 0x20 ADD SWAP2 PUSH2 0x78E JUMP JUMPDEST DUP3 ADD SWAP2 SWAP1 PUSH1 0x0 MSTORE PUSH1 0x20 PUSH1 0x0 KECCAK256 SWAP1 JUMPDEST DUP2 SLOAD DUP2 MSTORE SWAP1 PUSH1 0x1 ADD SWAP1 PUSH1 0x20 ADD DUP1 DUP4 GT PUSH2 0x771 JUMPI DUP3 SWAP1 SUB PUSH1 0x1F AND DUP3 ADD SWAP2 JUMPDEST POP POP POP POP POP DUP2 MSTORE PUSH1 0x20 ADD PUSH1 0x2 DUP3 ADD DUP1 SLOAD PUSH2 0x7A7 SWAP1 PUSH2 0x13C3 JUMP JUMPDEST DUP1 PUSH1 0x1F ADD PUSH1 0x20 DUP1 SWAP2 DIV MUL PUSH1 0x20 ADD PUSH1 0x40 MLOAD SWAP1 DUP2 ADD PUSH1 0x40 MSTORE DUP1 SWAP3 SWAP2 SWAP1 DUP2 DUP2 MSTORE PUSH1 0x20 ADD DUP3 DUP1 SLOAD PUSH2 0x7D3 SWAP1 PUSH2 0x13C3 JUMP JUMPDEST DUP1 ISZERO PUSH2 0x820 JUMPI DUP1 PUSH1 0x1F LT PUSH2 0x7F5 JUMPI PUSH2 0x100 DUP1 DUP4 SLOAD DIV MUL DUP4 MSTORE SWAP2 PUSH1 0x20 ADD SWAP2 PUSH2 0x820 JUMP JUMPDEST DUP3 ADD SWAP2 SWAP1 PUSH1 0x0 MSTORE PUSH1 0x20 PUSH1 0x0 KECCAK256 SWAP1 JUMPDEST DUP2 SLOAD DUP2 MSTORE SWAP1 PUSH1 0x1 ADD SWAP1 PUSH1 0x20 ADD DUP1 DUP4 GT PUSH2 0x803 JUMPI DUP3 SWAP1 SUB PUSH1 0x1F AND DUP3 ADD SWAP2 JUMPDEST POP POP POP POP POP DUP2 MSTORE PUSH1 0x20 ADD PUSH1 0x3 DUP3 ADD DUP1 SLOAD PUSH2 0x839 SWAP1 PUSH2 0x13C3 JUMP JUMPDEST DUP1 PUSH1 0x1F ADD PUSH1 0x20 DUP1 SWAP2 DIV MUL PUSH1 0x20 ADD PUSH1 0x40 MLOAD SWAP1 DUP2 ADD PUSH1 0x40 MSTORE DUP1 SWAP3 SWAP2 SWAP1 DUP2 DUP2 MSTORE PUSH1 0x20 ADD DUP3 DUP1 SLOAD PUSH2 0x865 SWAP1 PUSH2 0x13C3 JUMP JUMPDEST DUP1 ISZERO PUSH2 0x8B2 JUMPI DUP1 PUSH1 0x1F LT PUSH2 0x887 JUMPI PUSH2 0x100 DUP1 DUP4 SLOAD DIV MUL DUP4 MSTORE SWAP2 PUSH1 0x20 ADD SWAP2 PUSH2 0x8B2 JUMP JUMPDEST DUP3 ADD SWAP2 SWAP1 PUSH1 0x0 MSTORE PUSH1 0x20 PUSH1 0x0 KECCAK256 SWAP1 JUMPDEST DUP2 SLOAD DUP2 MSTORE SWAP1 PUSH1 0x1 ADD SWAP1 PUSH1 0x20 ADD DUP1 DUP4 GT PUSH2 0x895 JUMPI DUP3 SWAP1 SUB PUSH1 0x1F AND DUP3 ADD SWAP2 JUMPDEST POP POP POP POP POP DUP2 MSTORE PUSH1 0x20 ADD PUSH1 0x4 DUP3 ADD SLOAD DUP2 MSTORE PUSH1 0x20 ADD PUSH1 0x5 DUP3 ADD SLOAD DUP2 MSTORE PUSH1 0x20 ADD PUSH1 0x6 DUP3 ADD SLOAD DUP2 MSTORE POP POP SWAP1 POP DUP1 PUSH1 0x80 ADD MLOAD CALLVALUE LT ISZERO PUSH2 0x8EC JUMPI PUSH1 0x0 DUP1 REVERT JUMPDEST PUSH1 0x0 PUSH1 0x40 MLOAD DUP1 PUSH1 0x40 ADD PUSH1 0x40 MSTORE DUP1 TIMESTAMP DUP2 MSTORE PUSH1 0x20 ADD DUP4 DUP2 MSTORE POP SWAP1 POP PUSH1 0x2 PUSH1 0x0 CALLER PUSH20 0xFFFFFFFFFFFFFFFFFFFFFFFFFFFFFFFFFFFFFFFF AND PUSH20 0xFFFFFFFFFFFFFFFFFFFFFFFFFFFFFFFFFFFFFFFF AND DUP2 MSTORE PUSH1 0x20 ADD SWAP1 DUP2 MSTORE PUSH1 0x20 ADD PUSH1 0x0 KECCAK256 PUSH1 0x0 DUP2 SLOAD DUP1 SWAP3 SWAP2 SWAP1 PUSH2 0x955 SWAP1 PUSH2 0x1424 JUMP JUMPDEST SWAP2 SWAP1 POP SSTORE POP DUP1 PUSH1 0x3 PUSH1 0x0 CALLER PUSH20 0xFFFFFFFFFFFFFFFFFFFFFFFFFFFFFFFFFFFFFFFF AND PUSH20 0xFFFFFFFFFFFFFFFFFFFFFFFFFFFFFFFFFFFFFFFF AND DUP2 MSTORE PUSH1 0x20 ADD SWAP1 DUP2 MSTORE PUSH1 0x20 ADD PUSH1 0x0 KECCAK256 PUSH1 0x0 PUSH1 0x2 PUSH1 0x0 CALLER PUSH20 0xFFFFFFFFFFFFFFFFFFFFFFFFFFFFFFFFFFFFFFFF AND PUSH20 0xFFFFFFFFFFFFFFFFFFFFFFFFFFFFFFFFFFFFFFFF AND DUP2 MSTORE PUSH1 0x20 ADD SWAP1 DUP2 MSTORE PUSH1 0x20 ADD PUSH1 0x0 KECCAK256 SLOAD DUP2 MSTORE PUSH1 0x20 ADD SWAP1 DUP2 MSTORE PUSH1 0x20 ADD PUSH1 0x0 KECCAK256 PUSH1 0x0 DUP3 ADD MLOAD DUP2 PUSH1 0x0 ADD SSTORE PUSH1 0x20 DUP3 ADD MLOAD DUP2 PUSH1 0x1 ADD PUSH1 0x0 DUP3 ADD MLOAD DUP2 PUSH1 0x0 ADD SSTORE PUSH1 0x20 DUP3 ADD MLOAD DUP2 PUSH1 0x1 ADD SWAP1 DUP1 MLOAD SWAP1 PUSH1 0x20 ADD SWAP1 PUSH2 0xA23 SWAP3 SWAP2 SWAP1 PUSH2 0xC9A JUMP JUMPDEST POP PUSH1 0x40 DUP3 ADD MLOAD DUP2 PUSH1 0x2 ADD SWAP1 DUP1 MLOAD SWAP1 PUSH1 0x20 ADD SWAP1 PUSH2 0xA40 SWAP3 SWAP2 SWAP1 PUSH2 0xC9A JUMP JUMPDEST POP PUSH1 0x60 DUP3 ADD MLOAD DUP2 PUSH1 0x3 ADD SWAP1 DUP1 MLOAD SWAP1 PUSH1 0x20 ADD SWAP1 PUSH2 0xA5D SWAP3 SWAP2 SWAP1 PUSH2 0xC9A JUMP JUMPDEST POP PUSH1 0x80 DUP3 ADD MLOAD DUP2 PUSH1 0x4 ADD SSTORE PUSH1 0xA0 DUP3 ADD MLOAD DUP2 PUSH1 0x5 ADD SSTORE PUSH1 0xC0 DUP3 ADD MLOAD DUP2 PUSH1 0x6 ADD SSTORE POP POP SWAP1 POP POP PUSH1 0x1 PUSH1 0x0 DUP5 DUP2 MSTORE PUSH1 0x20 ADD SWAP1 DUP2 MSTORE PUSH1 0x20 ADD PUSH1 0x0 KECCAK256 PUSH1 0x6 ADD PUSH1 0x0 DUP2 SLOAD DUP1 SWAP3 SWAP2 SWAP1 PUSH2 0xAA8 SWAP1 PUSH2 0x146D JUMP JUMPDEST SWAP2 SWAP1 POP SSTORE POP PUSH32 0x1CBC5AB135991BD2B6A4B034A04AA2AA086DAC1371CB9B16B8B5E2ED6B036BED CALLER PUSH1 0x2 PUSH1 0x0 CALLER PUSH20 0xFFFFFFFFFFFFFFFFFFFFFFFFFFFFFFFFFFFFFFFF AND PUSH20 0xFFFFFFFFFFFFFFFFFFFFFFFFFFFFFFFFFFFFFFFF AND DUP2 MSTORE PUSH1 0x20 ADD SWAP1 DUP2 MSTORE PUSH1 0x20 ADD PUSH1 0x0 KECCAK256 SLOAD DUP5 PUSH1 0x0 ADD MLOAD PUSH1 0x40 MLOAD PUSH2 0xB23 SWAP4 SWAP3 SWAP2 SWAP1 PUSH2 0x1497 JUMP JUMPDEST PUSH1 0x40 MLOAD DUP1 SWAP2 SUB SWAP1 LOG1 POP POP POP JUMP JUMPDEST PUSH1 0x0 DUP1 SLOAD SWAP1 PUSH2 0x100 EXP SWAP1 DIV PUSH20 0xFFFFFFFFFFFFFFFFFFFFFFFFFFFFFFFFFFFFFFFF AND PUSH20 0xFFFFFFFFFFFFFFFFFFFFFFFFFFFFFFFFFFFFFFFF AND CALLER PUSH20 0xFFFFFFFFFFFFFFFFFFFFFFFFFFFFFFFFFFFFFFFF AND EQ PUSH2 0xB88 JUMPI PUSH1 0x0 DUP1 REVERT JUMPDEST PUSH1 0x0 PUSH1 0x40 MLOAD DUP1 PUSH1 0xE0 ADD PUSH1 0x40 MSTORE DUP1 DUP10 DUP2 MSTORE PUSH1 0x20 ADD DUP9 DUP2 MSTORE PUSH1 0x20 ADD DUP8 DUP2 MSTORE PUSH1 0x20 ADD DUP7 DUP2 MSTORE PUSH1 0x20 ADD DUP6 DUP2 MSTORE PUSH1 0x20 ADD DUP5 DUP2 MSTORE PUSH1 0x20 ADD DUP4 DUP2 MSTORE POP SWAP1 POP DUP1 PUSH1 0x1 PUSH1 0x0 DUP11 DUP2 MSTORE PUSH1 0x20 ADD SWAP1 DUP2 MSTORE PUSH1 0x20 ADD PUSH1 0x0 KECCAK256 PUSH1 0x0 DUP3 ADD MLOAD DUP2 PUSH1 0x0 ADD SSTORE PUSH1 0x20 DUP3 ADD MLOAD DUP2 PUSH1 0x1 ADD SWAP1 DUP1 MLOAD SWAP1 PUSH1 0x20 ADD SWAP1 PUSH2 0xBF9 SWAP3 SWAP2 SWAP1 PUSH2 0xC9A JUMP JUMPDEST POP PUSH1 0x40 DUP3 ADD MLOAD DUP2 PUSH1 0x2 ADD SWAP1 DUP1 MLOAD SWAP1 PUSH1 0x20 ADD SWAP1 PUSH2 0xC16 SWAP3 SWAP2 SWAP1 PUSH2 0xC9A JUMP JUMPDEST POP PUSH1 0x60 DUP3 ADD MLOAD DUP2 PUSH1 0x3 ADD SWAP1 DUP1 MLOAD SWAP1 PUSH1 0x20 ADD SWAP1 PUSH2 0xC33 SWAP3 SWAP2 SWAP1 PUSH2 0xC9A JUMP JUMPDEST POP PUSH1 0x80 DUP3 ADD MLOAD DUP2 PUSH1 0x4 ADD SSTORE PUSH1 0xA0 DUP3 ADD MLOAD DUP2 PUSH1 0x5 ADD SSTORE PUSH1 0xC0 DUP3 ADD MLOAD DUP2 PUSH1 0x6 ADD SSTORE SWAP1 POP POP PUSH32 0xFDBE2A012C10EC01592653978EAA09B5CA60B143A0E617505B2EBCBD911EC5B8 DUP8 DUP6 DUP5 PUSH1 0x40 MLOAD PUSH2 0xC88 SWAP4 SWAP3 SWAP2 SWAP1 PUSH2 0x14CE JUMP JUMPDEST PUSH1 0x40 MLOAD DUP1 SWAP2 SUB SWAP1 LOG1 POP POP POP POP POP POP POP POP JUMP JUMPDEST DUP3 DUP1 SLOAD PUSH2 0xCA6 SWAP1 PUSH2 0x13C3 JUMP JUMPDEST SWAP1 PUSH1 0x0 MSTORE PUSH1 0x20 PUSH1 0x0 KECCAK256 SWAP1 PUSH1 0x1F ADD PUSH1 0x20 SWAP1 DIV DUP2 ADD SWAP3 DUP3 PUSH2 0xCC8 JUMPI PUSH1 0x0 DUP6 SSTORE PUSH2 0xD0F JUMP JUMPDEST DUP3 PUSH1 0x1F LT PUSH2 0xCE1 JUMPI DUP1 MLOAD PUSH1 0xFF NOT AND DUP4 DUP1 ADD OR DUP6 SSTORE PUSH2 0xD0F JUMP JUMPDEST DUP3 DUP1 ADD PUSH1 0x1 ADD DUP6 SSTORE DUP3 ISZERO PUSH2 0xD0F JUMPI SWAP2 DUP3 ADD JUMPDEST DUP3 DUP2 GT ISZERO PUSH2 0xD0E JUMPI DUP3 MLOAD DUP3 SSTORE SWAP2 PUSH1 0x20 ADD SWAP2 SWAP1 PUSH1 0x1 ADD SWAP1 PUSH2 0xCF3 JUMP JUMPDEST JUMPDEST POP SWAP1 POP PUSH2 0xD1C SWAP2 SWAP1 PUSH2 0xD20 JUMP JUMPDEST POP SWAP1 JUMP JUMPDEST JUMPDEST DUP1 DUP3 GT ISZERO PUSH2 0xD39 JUMPI PUSH1 0x0 DUP2 PUSH1 0x0 SWAP1 SSTORE POP PUSH1 0x1 ADD PUSH2 0xD21 JUMP JUMPDEST POP SWAP1 JUMP JUMPDEST PUSH1 0x0 PUSH1 0x40 MLOAD SWAP1 POP SWAP1 JUMP JUMPDEST PUSH1 0x0 DUP1 REVERT JUMPDEST PUSH1 0x0 DUP1 REVERT JUMPDEST PUSH1 0x0 PUSH20 0xFFFFFFFFFFFFFFFFFFFFFFFFFFFFFFFFFFFFFFFF DUP3 AND SWAP1 POP SWAP2 SWAP1 POP JUMP JUMPDEST PUSH1 0x0 PUSH2 0xD7C DUP3 PUSH2 0xD51 JUMP JUMPDEST SWAP1 POP SWAP2 SWAP1 POP JUMP JUMPDEST PUSH2 0xD8C DUP2 PUSH2 0xD71 JUMP JUMPDEST DUP2 EQ PUSH2 0xD97 JUMPI PUSH1 0x0 DUP1 REVERT JUMPDEST POP JUMP JUMPDEST PUSH1 0x0 DUP2 CALLDATALOAD SWAP1 POP PUSH2 0xDA9 DUP2 PUSH2 0xD83 JUMP JUMPDEST SWAP3 SWAP2 POP POP JUMP JUMPDEST PUSH1 0x0 PUSH1 0x20 DUP3 DUP5 SUB SLT ISZERO PUSH2 0xDC5 JUMPI PUSH2 0xDC4 PUSH2 0xD47 JUMP JUMPDEST JUMPDEST PUSH1 0x0 PUSH2 0xDD3 DUP5 DUP3 DUP6 ADD PUSH2 0xD9A JUMP JUMPDEST SWAP2 POP POP SWAP3 SWAP2 POP POP JUMP JUMPDEST PUSH1 0x0 DUP2 SWAP1 POP SWAP2 SWAP1 POP JUMP JUMPDEST PUSH2 0xDEF DUP2 PUSH2 0xDDC JUMP JUMPDEST DUP3 MSTORE POP POP JUMP JUMPDEST PUSH1 0x0 PUSH1 0x20 DUP3 ADD SWAP1 POP PUSH2 0xE0A PUSH1 0x0 DUP4 ADD DUP5 PUSH2 0xDE6 JUMP JUMPDEST SWAP3 SWAP2 POP POP JUMP JUMPDEST PUSH2 0xE19 DUP2 PUSH2 0xDDC JUMP JUMPDEST DUP2 EQ PUSH2 0xE24 JUMPI PUSH1 0x0 DUP1 REVERT JUMPDEST POP JUMP JUMPDEST PUSH1 0x0 DUP2 CALLDATALOAD SWAP1 POP PUSH2 0xE36 DUP2 PUSH2 0xE10 JUMP JUMPDEST SWAP3 SWAP2 POP POP JUMP JUMPDEST PUSH1 0x0 DUP1 PUSH1 0x40 DUP4 DUP6 SUB SLT ISZERO PUSH2 0xE53 JUMPI PUSH2 0xE52 PUSH2 0xD47 JUMP JUMPDEST JUMPDEST PUSH1 0x0 PUSH2 0xE61 DUP6 DUP3 DUP7 ADD PUSH2 0xD9A JUMP JUMPDEST SWAP3 POP POP PUSH1 0x20 PUSH2 0xE72 DUP6 DUP3 DUP7 ADD PUSH2 0xE27 JUMP JUMPDEST SWAP2 POP POP SWAP3 POP SWAP3 SWAP1 POP JUMP JUMPDEST PUSH2 0xE85 DUP2 PUSH2 0xDDC JUMP JUMPDEST DUP3 MSTORE POP POP JUMP JUMPDEST PUSH1 0x0 DUP2 MLOAD SWAP1 POP SWAP2 SWAP1 POP JUMP JUMPDEST PUSH1 0x0 DUP3 DUP3 MSTORE PUSH1 0x20 DUP3 ADD SWAP1 POP SWAP3 SWAP2 POP POP JUMP JUMPDEST PUSH1 0x0 JUMPDEST DUP4 DUP2 LT ISZERO PUSH2 0xEC5 JUMPI DUP1 DUP3 ADD MLOAD DUP2 DUP5 ADD MSTORE PUSH1 0x20 DUP2 ADD SWAP1 POP PUSH2 0xEAA JUMP JUMPDEST DUP4 DUP2 GT ISZERO PUSH2 0xED4 JUMPI PUSH1 0x0 DUP5 DUP5 ADD MSTORE JUMPDEST POP POP POP POP JUMP JUMPDEST PUSH1 0x0 PUSH1 0x1F NOT PUSH1 0x1F DUP4 ADD AND SWAP1 POP SWAP2 SWAP1 POP JUMP JUMPDEST PUSH1 0x0 PUSH2 0xEF6 DUP3 PUSH2 0xE8B JUMP JUMPDEST PUSH2 0xF00 DUP2 DUP6 PUSH2 0xE96 JUMP JUMPDEST SWAP4 POP PUSH2 0xF10 DUP2 DUP6 PUSH1 0x20 DUP7 ADD PUSH2 0xEA7 JUMP JUMPDEST PUSH2 0xF19 DUP2 PUSH2 0xEDA JUMP JUMPDEST DUP5 ADD SWAP2 POP POP SWAP3 SWAP2 POP POP JUMP JUMPDEST PUSH1 0x0 PUSH1 0xE0 DUP4 ADD PUSH1 0x0 DUP4 ADD MLOAD PUSH2 0xF3C PUSH1 0x0 DUP7 ADD DUP3 PUSH2 0xE7C JUMP JUMPDEST POP PUSH1 0x20 DUP4 ADD MLOAD DUP5 DUP3 SUB PUSH1 0x20 DUP7 ADD MSTORE PUSH2 0xF54 DUP3 DUP3 PUSH2 0xEEB JUMP JUMPDEST SWAP2 POP POP PUSH1 0x40 DUP4 ADD MLOAD DUP5 DUP3 SUB PUSH1 0x40 DUP7 ADD MSTORE PUSH2 0xF6E DUP3 DUP3 PUSH2 0xEEB JUMP JUMPDEST SWAP2 POP POP PUSH1 0x60 DUP4 ADD MLOAD DUP5 DUP3 SUB PUSH1 0x60 DUP7 ADD MSTORE PUSH2 0xF88 DUP3 DUP3 PUSH2 0xEEB JUMP JUMPDEST SWAP2 POP POP PUSH1 0x80 DUP4 ADD MLOAD PUSH2 0xF9D PUSH1 0x80 DUP7 ADD DUP3 PUSH2 0xE7C JUMP JUMPDEST POP PUSH1 0xA0 DUP4 ADD MLOAD PUSH2 0xFB0 PUSH1 0xA0 DUP7 ADD DUP3 PUSH2 0xE7C JUMP JUMPDEST POP PUSH1 0xC0 DUP4 ADD MLOAD PUSH2 0xFC3 PUSH1 0xC0 DUP7 ADD DUP3 PUSH2 0xE7C JUMP JUMPDEST POP DUP1 SWAP2 POP POP SWAP3 SWAP2 POP POP JUMP JUMPDEST PUSH1 0x0 PUSH1 0x40 DUP3 ADD SWAP1 POP PUSH2 0xFE3 PUSH1 0x0 DUP4 ADD DUP6 PUSH2 0xDE6 JUMP JUMPDEST DUP2 DUP2 SUB PUSH1 0x20 DUP4 ADD MSTORE PUSH2 0xFF5 DUP2 DUP5 PUSH2 0xF24 JUMP JUMPDEST SWAP1 POP SWAP4 SWAP3 POP POP POP JUMP JUMPDEST PUSH2 0x1007 DUP2 PUSH2 0xD71 JUMP JUMPDEST DUP3 MSTORE POP POP JUMP JUMPDEST PUSH1 0x0 PUSH1 0x20 DUP3 ADD SWAP1 POP PUSH2 0x1022 PUSH1 0x0 DUP4 ADD DUP5 PUSH2 0xFFE JUMP JUMPDEST SWAP3 SWAP2 POP POP JUMP JUMPDEST PUSH1 0x0 PUSH1 0x20 DUP3 DUP5 SUB SLT ISZERO PUSH2 0x103E JUMPI PUSH2 0x103D PUSH2 0xD47 JUMP JUMPDEST JUMPDEST PUSH1 0x0 PUSH2 0x104C DUP5 DUP3 DUP6 ADD PUSH2 0xE27 JUMP JUMPDEST SWAP2 POP POP SWAP3 SWAP2 POP POP JUMP JUMPDEST PUSH1 0x0 DUP3 DUP3 MSTORE PUSH1 0x20 DUP3 ADD SWAP1 POP SWAP3 SWAP2 POP POP JUMP JUMPDEST PUSH1 0x0 PUSH2 0x1071 DUP3 PUSH2 0xE8B JUMP JUMPDEST PUSH2 0x107B DUP2 DUP6 PUSH2 0x1055 JUMP JUMPDEST SWAP4 POP PUSH2 0x108B DUP2 DUP6 PUSH1 0x20 DUP7 ADD PUSH2 0xEA7 JUMP JUMPDEST PUSH2 0x1094 DUP2 PUSH2 0xEDA JUMP JUMPDEST DUP5 ADD SWAP2 POP POP SWAP3 SWAP2 POP POP JUMP JUMPDEST PUSH1 0x0 PUSH1 0xE0 DUP3 ADD SWAP1 POP PUSH2 0x10B4 PUSH1 0x0 DUP4 ADD DUP11 PUSH2 0xDE6 JUMP JUMPDEST DUP2 DUP2 SUB PUSH1 0x20 DUP4 ADD MSTORE PUSH2 0x10C6 DUP2 DUP10 PUSH2 0x1066 JUMP JUMPDEST SWAP1 POP DUP2 DUP2 SUB PUSH1 0x40 DUP4 ADD MSTORE PUSH2 0x10DA DUP2 DUP9 PUSH2 0x1066 JUMP JUMPDEST SWAP1 POP DUP2 DUP2 SUB PUSH1 0x60 DUP4 ADD MSTORE PUSH2 0x10EE DUP2 DUP8 PUSH2 0x1066 JUMP JUMPDEST SWAP1 POP PUSH2 0x10FD PUSH1 0x80 DUP4 ADD DUP7 PUSH2 0xDE6 JUMP JUMPDEST PUSH2 0x110A PUSH1 0xA0 DUP4 ADD DUP6 PUSH2 0xDE6 JUMP JUMPDEST PUSH2 0x1117 PUSH1 0xC0 DUP4 ADD DUP5 PUSH2 0xDE6 JUMP JUMPDEST SWAP9 SWAP8 POP POP POP POP POP POP POP POP JUMP JUMPDEST PUSH1 0x0 DUP1 REVERT JUMPDEST PUSH1 0x0 DUP1 REVERT JUMPDEST PUSH32 0x4E487B7100000000000000000000000000000000000000000000000000000000 PUSH1 0x0 MSTORE PUSH1 0x41 PUSH1 0x4 MSTORE PUSH1 0x24 PUSH1 0x0 REVERT JUMPDEST PUSH2 0x1165 DUP3 PUSH2 0xEDA JUMP JUMPDEST DUP2 ADD DUP2 DUP2 LT PUSH8 0xFFFFFFFFFFFFFFFF DUP3 GT OR ISZERO PUSH2 0x1184 JUMPI PUSH2 0x1183 PUSH2 0x112D JUMP JUMPDEST JUMPDEST DUP1 PUSH1 0x40 MSTORE POP POP POP JUMP JUMPDEST PUSH1 0x0 PUSH2 0x1197 PUSH2 0xD3D JUMP JUMPDEST SWAP1 POP PUSH2 0x11A3 DUP3 DUP3 PUSH2 0x115C JUMP JUMPDEST SWAP2 SWAP1 POP JUMP JUMPDEST PUSH1 0x0 PUSH8 0xFFFFFFFFFFFFFFFF DUP3 GT ISZERO PUSH2 0x11C3 JUMPI PUSH2 0x11C2 PUSH2 0x112D JUMP JUMPDEST JUMPDEST PUSH2 0x11CC DUP3 PUSH2 0xEDA JUMP JUMPDEST SWAP1 POP PUSH1 0x20 DUP2 ADD SWAP1 POP SWAP2 SWAP1 POP JUMP JUMPDEST DUP3 DUP2 DUP4 CALLDATACOPY PUSH1 0x0 DUP4 DUP4 ADD MSTORE POP POP POP JUMP JUMPDEST PUSH1 0x0 PUSH2 0x11FB PUSH2 0x11F6 DUP5 PUSH2 0x11A8 JUMP JUMPDEST PUSH2 0x118D JUMP JUMPDEST SWAP1 POP DUP3 DUP2 MSTORE PUSH1 0x20 DUP2 ADD DUP5 DUP5 DUP5 ADD GT ISZERO PUSH2 0x1217 JUMPI PUSH2 0x1216 PUSH2 0x1128 JUMP JUMPDEST JUMPDEST PUSH2 0x1222 DUP5 DUP3 DUP6 PUSH2 0x11D9 JUMP JUMPDEST POP SWAP4 SWAP3 POP POP POP JUMP JUMPDEST PUSH1 0x0 DUP3 PUSH1 0x1F DUP4 ADD SLT PUSH2 0x123F JUMPI PUSH2 0x123E PUSH2 0x1123 JUMP JUMPDEST JUMPDEST DUP2 CALLDATALOAD PUSH2 0x124F DUP5 DUP3 PUSH1 0x20 DUP7 ADD PUSH2 0x11E8 JUMP JUMPDEST SWAP2 POP POP SWAP3 SWAP2 POP POP JUMP JUMPDEST PUSH1 0x0 DUP1 PUSH1 0x0 DUP1 PUSH1 0x0 DUP1 PUSH1 0x0 PUSH1 0xE0 DUP9 DUP11 SUB SLT ISZERO PUSH2 0x1277 JUMPI PUSH2 0x1276 PUSH2 0xD47 JUMP JUMPDEST JUMPDEST PUSH1 0x0 PUSH2 0x1285 DUP11 DUP3 DUP12 ADD PUSH2 0xE27 JUMP JUMPDEST SWAP8 POP POP PUSH1 0x20 DUP9 ADD CALLDATALOAD PUSH8 0xFFFFFFFFFFFFFFFF DUP2 GT ISZERO PUSH2 0x12A6 JUMPI PUSH2 0x12A5 PUSH2 0xD4C JUMP JUMPDEST JUMPDEST PUSH2 0x12B2 DUP11 DUP3 DUP12 ADD PUSH2 0x122A JUMP JUMPDEST SWAP7 POP POP PUSH1 0x40 DUP9 ADD CALLDATALOAD PUSH8 0xFFFFFFFFFFFFFFFF DUP2 GT ISZERO PUSH2 0x12D3 JUMPI PUSH2 0x12D2 PUSH2 0xD4C JUMP JUMPDEST JUMPDEST PUSH2 0x12DF DUP11 DUP3 DUP12 ADD PUSH2 0x122A JUMP JUMPDEST SWAP6 POP POP PUSH1 0x60 DUP9 ADD CALLDATALOAD PUSH8 0xFFFFFFFFFFFFFFFF DUP2 GT ISZERO PUSH2 0x1300 JUMPI PUSH2 0x12FF PUSH2 0xD4C JUMP JUMPDEST JUMPDEST PUSH2 0x130C DUP11 DUP3 DUP12 ADD PUSH2 0x122A JUMP JUMPDEST SWAP5 POP POP PUSH1 0x80 PUSH2 0x131D DUP11 DUP3 DUP12 ADD PUSH2 0xE27 JUMP JUMPDEST SWAP4 POP POP PUSH1 0xA0 PUSH2 0x132E DUP11 DUP3 DUP12 ADD PUSH2 0xE27 JUMP JUMPDEST SWAP3 POP POP PUSH1 0xC0 PUSH2 0x133F DUP11 DUP3 DUP12 ADD PUSH2 0xE27 JUMP JUMPDEST SWAP2 POP POP SWAP3 SWAP6 SWAP9 SWAP2 SWAP5 SWAP8 POP SWAP3 SWAP6 POP JUMP JUMPDEST PUSH1 0x0 DUP2 SWAP1 POP SWAP3 SWAP2 POP POP JUMP JUMPDEST POP JUMP JUMPDEST PUSH1 0x0 PUSH2 0x1369 PUSH1 0x0 DUP4 PUSH2 0x134E JUMP JUMPDEST SWAP2 POP PUSH2 0x1374 DUP3 PUSH2 0x1359 JUMP JUMPDEST PUSH1 0x0 DUP3 ADD SWAP1 POP SWAP2 SWAP1 POP JUMP JUMPDEST PUSH1 0x0 PUSH2 0x138A DUP3 PUSH2 0x135C JUMP JUMPDEST SWAP2 POP DUP2 SWAP1 POP SWAP2 SWAP1 POP JUMP JUMPDEST PUSH32 0x4E487B7100000000000000000000000000000000000000000000000000000000 PUSH1 0x0 MSTORE PUSH1 0x22 PUSH1 0x4 MSTORE PUSH1 0x24 PUSH1 0x0 REVERT JUMPDEST PUSH1 0x0 PUSH1 0x2 DUP3 DIV SWAP1 POP PUSH1 0x1 DUP3 AND DUP1 PUSH2 0x13DB JUMPI PUSH1 0x7F DUP3 AND SWAP2 POP JUMPDEST PUSH1 0x20 DUP3 LT DUP2 EQ ISZERO PUSH2 0x13EF JUMPI PUSH2 0x13EE PUSH2 0x1394 JUMP JUMPDEST JUMPDEST POP SWAP2 SWAP1 POP JUMP JUMPDEST PUSH32 0x4E487B7100000000000000000000000000000000000000000000000000000000 PUSH1 0x0 MSTORE PUSH1 0x11 PUSH1 0x4 MSTORE PUSH1 0x24 PUSH1 0x0 REVERT JUMPDEST PUSH1 0x0 PUSH2 0x142F DUP3 PUSH2 0xDDC JUMP JUMPDEST SWAP2 POP PUSH32 0xFFFFFFFFFFFFFFFFFFFFFFFFFFFFFFFFFFFFFFFFFFFFFFFFFFFFFFFFFFFFFFFF DUP3 EQ ISZERO PUSH2 0x1462 JUMPI PUSH2 0x1461 PUSH2 0x13F5 JUMP JUMPDEST JUMPDEST PUSH1 0x1 DUP3 ADD SWAP1 POP SWAP2 SWAP1 POP JUMP JUMPDEST PUSH1 0x0 PUSH2 0x1478 DUP3 PUSH2 0xDDC JUMP JUMPDEST SWAP2 POP PUSH1 0x0 DUP3 EQ ISZERO PUSH2 0x148C JUMPI PUSH2 0x148B PUSH2 0x13F5 JUMP JUMPDEST JUMPDEST PUSH1 0x1 DUP3 SUB SWAP1 POP SWAP2 SWAP1 POP JUMP JUMPDEST PUSH1 0x0 PUSH1 0x60 DUP3 ADD SWAP1 POP PUSH2 0x14AC PUSH1 0x0 DUP4 ADD DUP7 PUSH2 0xFFE JUMP JUMPDEST PUSH2 0x14B9 PUSH1 0x20 DUP4 ADD DUP6 PUSH2 0xDE6 JUMP JUMPDEST PUSH2 0x14C6 PUSH1 0x40 DUP4 ADD DUP5 PUSH2 0xDE6 JUMP JUMPDEST SWAP5 SWAP4 POP POP POP POP JUMP JUMPDEST PUSH1 0x0 PUSH1 0x60 DUP3 ADD SWAP1 POP DUP2 DUP2 SUB PUSH1 0x0 DUP4 ADD MSTORE PUSH2 0x14E8 DUP2 DUP7 PUSH2 0x1066 JUMP JUMPDEST SWAP1 POP PUSH2 0x14F7 PUSH1 0x20 DUP4 ADD DUP6 PUSH2 0xDE6 JUMP JUMPDEST PUSH2 0x1504 PUSH1 0x40 DUP4 ADD DUP5 PUSH2 0xDE6 JUMP JUMPDEST SWAP5 SWAP4 POP POP POP POP JUMP INVALID LOG2 PUSH5 0x6970667358 0x22 SLT KECCAK256 PUSH30 0xF8DA63AC2C9CBE614AEFD4E7F7E7E39AF651A6756527487E0EDC2B147A1C BALANCE PUSH5 0x736F6C6343 STOP ADDMOD MULMOD STOP CALLER "},"methodIdentifiers":{"buy(uint256)":"d96a094a","items(uint256)":"bfb231d2","list(uint256,string,string,string,uint256,uint256,uint256)":"eea8a7e8","orderCount(address)":"713d856b","orders(address,uint256)":"793b8c6d","owner()":"8da5cb5b","withdraw()":"3ccfd60b"}}}}}