{
  "_format": "hh-sol-artifact-1",
  "contractName": "Marketx",
  "sourceName": "contracts/Marketx.sol",
  "abi": [
    {
      "inputs": [],
      "stateMutability": "nonpayable",
      "type": "constructor"
    },
    {
      "anonymous": false,
      "inputs": [
        {
          "indexed": false,
          "internalType": "address",
          "name": "buyer",
          "type": "address"
        },
        {
          "indexed": false,
          "internalType": "uint256",
          "name": "orderId",
          "type": "uint256"
        },
        {
          "indexed": false,
          "internalType": "uint256",
          "name": "itemId",
          "type": "uint256"
        }
      ],
      "name": "Buy",
      "type": "event"
    },
    {
      "anonymous": false,
      "inputs": [
        {
          "indexed": false,
          "internalType": "string",
          "name": "name",
          "type": "string"
        },
        {
          "indexed": false,
          "internalType": "uint256",
          "name": "cost",
          "type": "uint256"
        },
        {
          "indexed": false,
          "internalType": "uint256",
          "name": "quantity",
          "type": "uint256"
        }
      ],
      "name": "List",
      "type": "event"
    },
    {
      "inputs": [
        {
          "internalType": "uint256",
          "name": "_id",
          "type": "uint256"
        }
      ],
      "name": "buy",
      "outputs": [],
      "stateMutability": "payable",
      "type": "function"
    },
    {
      "inputs": [
        {
          "internalType": "uint256",
          "name": "",
          "type": "uint256"
        }
      ],
      "name": "items",
      "outputs": [
        {
          "internalType": "uint256",
          "name": "id",
          "type": "uint256"
        },
        {
          "internalType": "string",
          "name": "name",
          "type": "string"
        },
        {
          "internalType": "string",
          "name": "category",
          "type": "string"
        },
        {
          "internalType": "string",
          "name": "image",
          "type": "string"
        },
        {
          "internalType": "uint256",
          "name": "cost",
          "type": "uint256"
        },
        {
          "internalType": "uint256",
          "name": "rating",
          "type": "uint256"
        },
        {
          "internalType": "uint256",
          "name": "stock",
          "type": "uint256"
        }
      ],
      "stateMutability": "view",
      "type": "function"
    },
    {
      "inputs": [
        {
          "internalType": "uint256",
          "name": "_id",
          "type": "uint256"
        },
        {
          "internalType": "string",
          "name": "_name",
          "type": "string"
        },
        {
          "internalType": "string",
          "name": "_category",
          "type": "string"
        },
        {
          "internalType": "string",
          "name": "_image",
          "type": "string"
        },
        {
          "internalType": "uint256",
          "name": "_cost",
          "type": "uint256"
        },
        {
          "internalType": "uint256",
          "name": "_rating",
          "type": "uint256"
        },
        {
          "internalType": "uint256",
          "name": "_stock",
          "type": "uint256"
        }
      ],
      "name": "list",
      "outputs": [],
      "stateMutability": "nonpayable",
      "type": "function"
    },
    {
      "inputs": [
        {
          "internalType": "address",
          "name": "",
          "type": "address"
        }
      ],
      "name": "orderCount",
      "outputs": [
        {
          "internalType": "uint256",
          "name": "",
          "type": "uint256"
        }
      ],
      "stateMutability": "view",
      "type": "function"
    },
    {
      "inputs": [
        {
          "internalType": "address",
          "name": "",
          "type": "address"
        },
        {
          "internalType": "uint256",
          "name": "",
          "type": "uint256"
        }
      ],
      "name": "orders",
      "outputs": [
        {
          "internalType": "uint256",
          "name": "time",
          "type": "uint256"
        },
        {
          "components": [
            {
              "internalType": "uint256",
              "name": "id",
              "type": "uint256"
            },
            {
              "internalType": "string",
              "name": "name",
              "type": "string"
            },
            {
              "internalType": "string",
              "name": "category",
              "type": "string"
            },
            {
              "internalType": "string",
              "name": "image",
              "type": "string"
            },
            {
              "internalType": "uint256",
              "name": "cost",
              "type": "uint256"
            },
            {
              "internalType": "uint256",
              "name": "rating",
              "type": "uint256"
            },
            {
              "internalType": "uint256",
              "name": "stock",
              "type": "uint256"
            }
          ],
          "internalType": "struct Marketx.Item",
          "name": "item",
          "type": "tuple"
        }
      ],
      "stateMutability": "view",
      "type": "function"
    },
    {
      "inputs": [],
      "name": "owner",
      "outputs": [
        {
          "internalType": "address",
          "name": "",
          "type": "address"
        }
      ],
      "stateMutability": "view",
      "type": "function"
    },
    {
      "inputs": [],
      "name": "withdraw",
      "outputs": [],
      "stateMutability": "nonpayable",
      "type": "function"
    }
  ],
  "bytecode": "0x608060405234801561001057600080fd5b50336000806101000a81548173ffffffffffffffffffffffffffffffffffffffff021916908373ffffffffffffffffffffffffffffffffffffffff160217905550611542806100606000396000f3fe6080604052600436106100705760003560e01c80638da5cb5b1161004e5780638da5cb5b14610107578063bfb231d214610132578063d96a094a14610175578063eea8a7e81461019157610070565b80633ccfd60b14610075578063713d856b1461008c578063793b8c6d146100c9575b600080fd5b34801561008157600080fd5b5061008a6101ba565b005b34801561009857600080fd5b506100b360048036038101906100ae9190610daf565b6102ac565b6040516100c09190610df5565b60405180910390f35b3480156100d557600080fd5b506100f060048036038101906100eb9190610e3c565b6102c4565b6040516100fe929190610fce565b60405180910390f35b34801561011357600080fd5b5061011c6104dd565b604051610129919061100d565b60405180910390f35b34801561013e57600080fd5b5061015960048036038101906101549190611028565b610501565b60405161016c979695949392919061109f565b60405180910390f35b61018f600480360381019061018a9190611028565b6106db565b005b34801561019d57600080fd5b506101b860048036038101906101b39190611258565b610b30565b005b60008054906101000a900473ffffffffffffffffffffffffffffffffffffffff1673ffffffffffffffffffffffffffffffffffffffff163373ffffffffffffffffffffffffffffffffffffffff161461021257600080fd5b60008060009054906101000a900473ffffffffffffffffffffffffffffffffffffffff1673ffffffffffffffffffffffffffffffffffffffff16476040516102599061137f565b60006040518083038185875af1925050503d8060008114610296576040519150601f19603f3d011682016040523d82523d6000602084013e61029b565b606091505b50509050806102a957600080fd5b50565b60026020528060005260406000206000915090505481565b600360205281600052604060002060205280600052604060002060009150915050806000015490806001016040518060e001604052908160008201548152602001600182018054610314906113c3565b80601f0160208091040260200160405190810160405280929190818152602001828054610340906113c3565b801561038d5780601f106103625761010080835404028352916020019161038d565b820191906000526020600020905b81548152906001019060200180831161037057829003601f168201915b505050505081526020016002820180546103a6906113c3565b80601f01602080910402602001604051908101604052809291908181526020018280546103d2906113c3565b801561041f5780601f106103f45761010080835404028352916020019161041f565b820191906000526020600020905b81548152906001019060200180831161040257829003601f168201915b50505050508152602001600382018054610438906113c3565b80601f0160208091040260200160405190810160405280929190818152602001828054610464906113c3565b80156104b15780601f10610486576101008083540402835291602001916104b1565b820191906000526020600020905b81548152906001019060200180831161049457829003601f168201915b505050505081526020016004820154815260200160058201548152602001600682015481525050905082565b60008054906101000a900473ffffffffffffffffffffffffffffffffffffffff1681565b600160205280600052604060002060009150905080600001549080600101805461052a906113c3565b80601f0160208091040260200160405190810160405280929190818152602001828054610556906113c3565b80156105a35780601f10610578576101008083540402835291602001916105a3565b820191906000526020600020905b81548152906001019060200180831161058657829003601f168201915b5050505050908060020180546105b8906113c3565b80601f01602080910402602001604051908101604052809291908181526020018280546105e4906113c3565b80156106315780601f1061060657610100808354040283529160200191610631565b820191906000526020600020905b81548152906001019060200180831161061457829003601f168201915b505050505090806003018054610646906113c3565b80601f0160208091040260200160405190810160405280929190818152602001828054610672906113c3565b80156106bf5780601f10610694576101008083540402835291602001916106bf565b820191906000526020600020905b8154815290600101906020018083116106a257829003601f168201915b5050505050908060040154908060050154908060060154905087565b6000600160008381526020019081526020016000206040518060e001604052908160008201548152602001600182018054610715906113c3565b80601f0160208091040260200160405190810160405280929190818152602001828054610741906113c3565b801561078e5780601f106107635761010080835404028352916020019161078e565b820191906000526020600020905b81548152906001019060200180831161077157829003601f168201915b505050505081526020016002820180546107a7906113c3565b80601f01602080910402602001604051908101604052809291908181526020018280546107d3906113c3565b80156108205780601f106107f557610100808354040283529160200191610820565b820191906000526020600020905b81548152906001019060200180831161080357829003601f168201915b50505050508152602001600382018054610839906113c3565b80601f0160208091040260200160405190810160405280929190818152602001828054610865906113c3565b80156108b25780601f10610887576101008083540402835291602001916108b2565b820191906000526020600020905b81548152906001019060200180831161089557829003601f168201915b505050505081526020016004820154815260200160058201548152602001600682015481525050905080608001513410156108ec57600080fd5b60006040518060400160405280428152602001838152509050600260003373ffffffffffffffffffffffffffffffffffffffff1673ffffffffffffffffffffffffffffffffffffffff168152602001908152602001600020600081548092919061095590611424565b919050555080600360003373ffffffffffffffffffffffffffffffffffffffff1673ffffffffffffffffffffffffffffffffffffffff1681526020019081526020016000206000600260003373ffffffffffffffffffffffffffffffffffffffff1673ffffffffffffffffffffffffffffffffffffffff16815260200190815260200160002054815260200190815260200160002060008201518160000155602082015181600101600082015181600001556020820151816001019080519060200190610a23929190610c9a565b506040820151816002019080519060200190610a40929190610c9a565b506060820151816003019080519060200190610a5d929190610c9a565b506080820151816004015560a0820151816005015560c082015181600601555050905050600160008481526020019081526020016000206006016000815480929190610aa89061146d565b91905055507f1cbc5ab135991bd2b6a4b034a04aa2aa086dac1371cb9b16b8b5e2ed6b036bed33600260003373ffffffffffffffffffffffffffffffffffffffff1673ffffffffffffffffffffffffffffffffffffffff168152602001908152602001600020548460000151604051610b2393929190611497565b60405180910390a1505050565b60008054906101000a900473ffffffffffffffffffffffffffffffffffffffff1673ffffffffffffffffffffffffffffffffffffffff163373ffffffffffffffffffffffffffffffffffffffff1614610b8857600080fd5b60006040518060e0016040528089815260200188815260200187815260200186815260200185815260200184815260200183815250905080600160008a8152602001908152602001600020600082015181600001556020820151816001019080519060200190610bf9929190610c9a565b506040820151816002019080519060200190610c16929190610c9a565b506060820151816003019080519060200190610c33929190610c9a565b506080820151816004015560a0820151816005015560c082015181600601559050507ffdbe2a012c10ec01592653978eaa09b5ca60b143a0e617505b2ebcbd911ec5b8878584604051610c88939291906114ce565b60405180910390a15050505050505050565b828054610ca6906113c3565b90600052602060002090601f016020900481019282610cc85760008555610d0f565b82601f10610ce157805160ff1916838001178555610d0f565b82800160010185558215610d0f579182015b82811115610d0e578251825591602001919060010190610cf3565b5b509050610d1c9190610d20565b5090565b5b80821115610d39576000816000905550600101610d21565b5090565b6000604051905090565b600080fd5b600080fd5b600073ffffffffffffffffffffffffffffffffffffffff82169050919050565b6000610d7c82610d51565b9050919050565b610d8c81610d71565b8114610d9757600080fd5b50565b600081359050610da981610d83565b92915050565b600060208284031215610dc557610dc4610d47565b5b6000610dd384828501610d9a565b91505092915050565b6000819050919050565b610def81610ddc565b82525050565b6000602082019050610e0a6000830184610de6565b92915050565b610e1981610ddc565b8114610e2457600080fd5b50565b600081359050610e3681610e10565b92915050565b60008060408385031215610e5357610e52610d47565b5b6000610e6185828601610d9a565b9250506020610e7285828601610e27565b9150509250929050565b610e8581610ddc565b82525050565b600081519050919050565b600082825260208201905092915050565b60005b83811015610ec5578082015181840152602081019050610eaa565b83811115610ed4576000848401525b50505050565b6000601f19601f8301169050919050565b6000610ef682610e8b565b610f008185610e96565b9350610f10818560208601610ea7565b610f1981610eda565b840191505092915050565b600060e083016000830151610f3c6000860182610e7c565b5060208301518482036020860152610f548282610eeb565b91505060408301518482036040860152610f6e8282610eeb565b91505060608301518482036060860152610f888282610eeb565b9150506080830151610f9d6080860182610e7c565b5060a0830151610fb060a0860182610e7c565b5060c0830151610fc360c0860182610e7c565b508091505092915050565b6000604082019050610fe36000830185610de6565b8181036020830152610ff58184610f24565b90509392505050565b61100781610d71565b82525050565b60006020820190506110226000830184610ffe565b92915050565b60006020828403121561103e5761103d610d47565b5b600061104c84828501610e27565b91505092915050565b600082825260208201905092915050565b600061107182610e8b565b61107b8185611055565b935061108b818560208601610ea7565b61109481610eda565b840191505092915050565b600060e0820190506110b4600083018a610de6565b81810360208301526110c68189611066565b905081810360408301526110da8188611066565b905081810360608301526110ee8187611066565b90506110fd6080830186610de6565b61110a60a0830185610de6565b61111760c0830184610de6565b98975050505050505050565b600080fd5b600080fd5b7f4e487b7100000000000000000000000000000000000000000000000000000000600052604160045260246000fd5b61116582610eda565b810181811067ffffffffffffffff821117156111845761118361112d565b5b80604052505050565b6000611197610d3d565b90506111a3828261115c565b919050565b600067ffffffffffffffff8211156111c3576111c261112d565b5b6111cc82610eda565b9050602081019050919050565b82818337600083830152505050565b60006111fb6111f6846111a8565b61118d565b90508281526020810184848401111561121757611216611128565b5b6112228482856111d9565b509392505050565b600082601f83011261123f5761123e611123565b5b813561124f8482602086016111e8565b91505092915050565b600080600080600080600060e0888a03121561127757611276610d47565b5b60006112858a828b01610e27565b975050602088013567ffffffffffffffff8111156112a6576112a5610d4c565b5b6112b28a828b0161122a565b965050604088013567ffffffffffffffff8111156112d3576112d2610d4c565b5b6112df8a828b0161122a565b955050606088013567ffffffffffffffff811115611300576112ff610d4c565b5b61130c8a828b0161122a565b945050608061131d8a828b01610e27565b93505060a061132e8a828b01610e27565b92505060c061133f8a828b01610e27565b91505092959891949750929550565b600081905092915050565b50565b600061136960008361134e565b915061137482611359565b600082019050919050565b600061138a8261135c565b9150819050919050565b7f4e487b7100000000000000000000000000000000000000000000000000000000600052602260045260246000fd5b600060028204905060018216806113db57607f821691505b602082108114156113ef576113ee611394565b5b50919050565b7f4e487b7100000000000000000000000000000000000000000000000000000000600052601160045260246000fd5b600061142f82610ddc565b91507fffffffffffffffffffffffffffffffffffffffffffffffffffffffffffffffff821415611462576114616113f5565b5b600182019050919050565b600061147882610ddc565b9150600082141561148c5761148b6113f5565b5b600182039050919050565b60006060820190506114ac6000830186610ffe565b6114b96020830185610de6565b6114c66040830184610de6565b949350505050565b600060608201905081810360008301526114e88186611066565b90506114f76020830185610de6565b6115046040830184610de6565b94935050505056fea26469706673582212207df8da63ac2c9cbe614aefd4e7f7e7e39af651a6756527487e0edc2b147a1c3164736f6c63430008090033",
  "linkReferences": {},
  "deployedLinkReferences": {}
}